:100000000C942A000C9447000C9447000C94470071
:100010000C9447000C9447000C9447000C94470044
:100020000C9447000C9447000C9447000C94470034
:100030000C9447000C9447000C9447000C94470024
:100040000C9447000C9447000C9447000C94470014
:100050000C94470011241FBECFE5D8E0DEBFCDBF12
:1000600010E0A0E6B0E0E2EFFDE002C005900D92E6
:10007000A637B107D9F710E0A6E7B0E001C01D929E
:10008000A637B107E1F70E94B3040C94F7060C946D
:100090000000823451F1833420F4813409F07BC0B4
:1000A00007C0833409F43EC0843409F074C057C0DB
:1000B000413069F42AB381E090E0AC0102C0440F02
:1000C000551F6A95E2F7BA01622B6ABB08952AB3FD
:1000D00081E090E0AC0102C0440F551F6A95E2F741
:1000E000BA01609562236ABB0895413069F427B371
:1000F00081E090E0AC0102C0440F551F6A95E2F721
:10010000BA01622B67BB089527B381E090E0AC0190
:1001100002C0440F551F6A95E2F7BA016095622349
:1001200067BB0895413069F424B381E090E0AC01ED
:1001300002C0440F551F6A95E2F7BA01622B64BBF7
:10014000089524B381E090E0AC0102C0440F551F34
:100150006A95E2F7BA016095622364BB0895413065
:1001600069F421B381E090E0AC0102C0440F551F57
:100170006A95E2F7BA01622B61BB089521B381E071
:1001800090E0AC0102C0440F551F6A95E2F7BA0136
:100190006095622361BB0895823451F1833420F469
:1001A000813409F07BC007C0833409F43EC0843435
:1001B00009F074C057C0413069F42BB381E090E07E
:1001C000AC0102C0440F551F6A95E2F7BA01622BD9
:1001D0006BBB08952BB381E090E0AC0102C0440FEB
:1001E000551F6A95E2F7BA01609562236BBB0895CB
:1001F000413069F428B381E090E0AC0102C0440FC3
:10020000551F6A95E2F7BA01622B68BB089528B3BF
:1002100081E090E0AC0102C0440F551F6A95E2F7FF
:10022000BA016095622368BB0895413069F425B333
:1002300081E090E0AC0102C0440F551F6A95E2F7DF
:10024000BA01622B65BB089525B381E090E0AC0153
:1002500002C0440F551F6A95E2F7BA016095622308
:1002600065BB0895413069F422B381E090E0AC01B0
:1002700002C0440F551F6A95E2F7BA01622B62BBB8
:10028000089522B381E090E0AC0102C0440F551FF5
:100290006A95E2F7BA016095622362BB08958234E1
:1002A000F1F0833420F4813409F04FC006C0833468
:1002B00041F1843409F049C036C029B381E090E0AF
:1002C000062E02C0880F991F0A94E2F730E08223BD
:1002D000932302C0959587956A95E2F7089526B312
:1002E00081E090E0062E02C0880F991F0A94E2F781
:1002F00030E08223932302C0959587956A95E2F7B3
:10030000089523B381E090E0062E02C0880F991F64
:100310000A94E2F730E08223932302C095958795F3
:100320006A95E2F7089520B381E090E0062E02C0BE
:10033000880F991F0A94E2F730E08223932302C0CA
:10034000959587956A95E2F7089580E0089582343F
:10035000B9F0833418F48134C9F505C08334E9F069
:100360008434A1F527C02BB381E090E0AC0102C03A
:10037000440F551F6A95E2F7BA0162276BBB0895D7
:1003800028B381E090E0AC0102C0440F551F6A958C
:10039000E2F7BA01622768BB089525B381E090E0D7
:1003A000AC0102C0440F551F6A95E2F7BA016227FB
:1003B00065BB089522B381E090E0AC0102C0440F18
:1003C000551F6A95E2F7BA01622762BB089582342D
:1003D00061F0833418F4813469F405C0833439F052
:1003E000843441F406C06ABB089567BB089564BBBA
:1003F000089561BB0895823461F0833418F4813428
:1004000069F405C0833439F0843441F406C06BBB11
:10041000089568BB089565BB089562BB0895823452
:1004200061F0833418F4813471F405C0833439F0F9
:10043000843449F406C089B3089586B3089583B31C
:10044000089580B3089580E00895823451F1833493
:1004500020F4813409F07BC007C0833409F43EC026
:10046000843409F074C057C0413069F42BB381E083
:1004700090E0AC0102C0440F551F6A95E2F7BA0143
:10048000622B6BBB08952BB381E090E0AC0102C0FE
:10049000440F551F6A95E2F7BA01609562236BBB62
:1004A0000895413069F428B381E090E0AC0102C0C6
:1004B000440F551F6A95E2F7BA01622B68BB089595
:1004C00028B381E090E0AC0102C0440F551F6A954B
:1004D000E2F7BA016095622368BB0895413069F480
:1004E00025B381E090E0AC0102C0440F551F6A952E
:1004F000E2F7BA01622B65BB089525B381E090E075
:10050000AC0102C0440F551F6A95E2F7BA0160952D
:10051000622365BB0895413069F422B381E090E025
:10052000AC0102C0440F551F6A95E2F7BA01622B75
:1005300062BB089522B381E090E0AC0102C0440F99
:10054000551F6A95E2F7BA016095622362BB089570
:100550006F70823481F0833418F48134F1F405C073
:10056000833479F08434C9F412C08BB3807F8BBBA1
:100570008BB3862B8BBB88B3807F88BB88B3862BDD
:1005800088BB85B3807F85BB85B3862B85BB82B353
:10059000807F82BB82B3682B62BB08956295607FC7
:1005A000823481F0833418F48134F1F405C083344B
:1005B00079F08434C9F412C08BB38F708BBB8BB3CA
:1005C000862B8BBB88B38F7088BB88B3862B88BB88
:1005D00085B38F7085BB85B3862B85BB82B38F7047
:1005E00082BB82B3682B62BB089584E490E060E034
:1005F00070E041E050E00E94490084E490E061E056
:1006000070E041E050E00E94490084E490E062E044
:1006100070E041E050E00E94490084E490E063E033
:1006200070E041E050E00E94490084E490E064E022
:1006300070E040E050E00E94490084E490E065E012
:1006400070E040E050E00E94490084E490E066E001
:1006500070E040E050E00E94490084E490E067E0F0
:1006600070E040E050E00E94490084E490E064E0E3
:1006700070E041E050E00E94250284E490E065E0F3
:1006800070E041E050E00E94250284E490E066E0E2
:1006900070E041E050E00E94250284E490E067E0D1
:1006A00070E041E050E00E9425020895AF92BF92B1
:1006B000CF92DF92EF92FF920F931F93CF93DF932E
:1006C000CDB7DEB760970FB6F894DEBF0FBECDBFD3
:1006D000DE011196E0E6F0E080E101900D9281509C
:1006E000E1F7EE24FF2484E490E060E070E041E074
:1006F00050E00E94CC0084E490E061E070E041E0D2
:1007000050E00E94CC0084E490E062E070E041E0C0
:1007100050E00E94CC0084E490E063E070E041E0AF
:1007200050E00E94CC00570184E490E0B70140E023
:1007300050E00E94CC0000E010E06801B8016C5F5E
:100740007F4F84E490E00E944F01882361F4F5011B
:10075000EE0FFF1FEE0FFF1FCE0EDF1EFE01EC0D92
:10076000FD1D818106C00F5F1F4F0430110529F761
:1007700011C060960FB6F894DEBF0FBECDBFDF91FB
:10078000CF911F910F91FF90EF90DF90CF90BF908E
:10079000AF9008950894E11CF11C84E0E816F10480
:1007A00009F0A1CF8FEFE5CF82E460E041E00E9445
:1007B000CC008FE99FE00197F1F700C0000082E4D0
:1007C00060E040E00E94CC008FE99FE00197F1F7E4
:1007D00000C000000895682F81E40E94FB0182E4BC
:1007E00061E040E00E94CC000E94D4038FEC97E0CF
:1007F0000197F1F700C0000008958FEF91EEA4E09B
:1008000081509040A040E1F700C0000081E460E02A
:1008100041E00E94490081E461E041E00E9449001A
:1008200081E462E041E00E94490081E463E041E04C
:100830000E94490081E464E041E00E94490081E4B3
:1008400065E041E00E94490081E466E041E00E94E9
:10085000490081E467E041E00E94490082E460E0F1
:1008600041E00E94490082E462E041E00E944900C8
:1008700082E461E041E00E94490082E462E040E0FD
:100880000E94CC0088E30E94EB03AFECB7E0119725
:10089000F1F700C000008EE00E94EB038FEC97E0C0
:1008A0000197F1F700C0000081E00E94EB03AFE187
:1008B000BEE41197F1F700C0000086E00E94EB0350
:1008C0008FEC97E00197F1F700C000000895682FC2
:1008D00081E40E94FB0182E461E041E00E94CC00DF
:1008E0000E94D4038FEC97E00197F1F700C000005D
:1008F0000895CF93DF93EC018881882331F021960E
:100900000E94670489918823D9F7DF91CF910895D8
:1009100081E00E94EB038FE19EE40197F1F700C0B4
:1009200000000895282F2150223070F4662371F0C2
:10093000613170F4813019F4962F91580AC08230D9
:1009400041F4962F915405C090E803C090E801C08F
:1009500090E8892F0E94EB038FEC97E00197F1F765
:1009600000C000000895CF93DF9300D000D000D0E6
:10097000CDB7DEB70F2EF0E76F2EF0E07F2EF02D13
:100980000F2EF6E0AF2EF02D0F2EFAE08F2E9924C9
:10099000F02D0F2EF4E62F2E3324F02D0E94FD03B0
:1009A0000E94F502FE013196D3018A2D0D9001922D
:1009B0008150E1F7BB240F2EF0E34F2E5524F02D8C
:1009C0000E945603E1E0F0E0EC0FFD1FEB0DF11D7E
:1009D00080838F3FA9F3813451F08D3341F08B3206
:1009E00031F08D3221F08F3211F08A3219F40E94E9
:1009F0008804D4CF0E9467048B2D8F5F2FEF34E3E0
:100A00004CE0215030404040E1F700C0000001E0E0
:100A100010E00C0F1D1F080F111D0E945603D80176
:100A20008C938F3FD1F3813411F08D3319F40E94F0
:100A30008804B4CF0E9467048B2D8E5F2FEF34E3C0
:100A40004CE0215030404040E1F700C0000001E0A0
:100A500010E00C0F1D1F080F111D0E945603D80136
:100A60008C938F3FD1F3813451F08D3341F08B3231
:100A700031F08D3221F08F3211F08A3219F40E9458
:100A800088048CCF0E946704B3E0BB0E2FEF34E3E1
:100A90004CE0215030404040E1F700C00000EB2C1A
:100AA000FF2401E010E00C0F1D1F0E0D1F1D0E9402
:100AB0005603D8018C938F3FD1F38D3309F063C176
:100AC0000E946704EFEFFFEFEC0FFD1FEE0DFF1D1F
:100AD00080818B3269F08C3220F48A3209F056C161
:100AE000A4C08D3209F451C08F3209F04FC1FDC04E
:100AF000EEEFFFEFEC0FFD1FEE0DFF1D2081FE015D
:100B0000EE0DFF1D808190E0820F911D8C0100563B
:100B10001040C80184569040B3E084389B07C8F465
:100B2000C801B1010E94D006862F805D0E94670433
:100B3000C801B4010E94D006082FCB01B4010E9465
:100B4000D006805D0E946704802F805D0E9467044C
:100B50001DC1C8010A978A35910570F4C801B40116
:100B60000E94D006082F862F805D0E946704802F88
:100B7000805D0E9467040AC10A30110508F006C1B1
:100B8000802F805D0E94670401C1EEEFFFEFEC0F44
:100B9000FD1FEE0DFF1D808190E08C010053104081
:100BA000FE01EE0DFF1D8081F201E81BF1090E0F21
:100BB0001F1FC80184569040F3E084389F07C8F493
:100BC000C801B1010E94D006862F805D0E94670493
:100BD000C801B4010E94D006082FCB01B4010E94C5
:100BE000D006805D0E946704802F805D0E946704AC
:100BF000CDC0C8010A978A35910570F4C801B401C7
:100C00000E94D006082F862F805D0E946704802FE7
:100C1000805D0E946704BAC00A30110508F0B6C0B2
:100C2000802F805D0E946704B1C0EEEFFFEFEC0FF4
:100C3000FD1FEE0DFF1D808190E09C012053304090
:100C4000FE01EE0DFF1D808190E0C097289F80017E
:100C5000299F100D389F100D1124C801885E934004
:100C600023E28832920728F5C80168EE73E00E94FB
:100C7000D006862F805D0E946704C801B1010E94E2
:100C8000D006CB01B4010E94D006805D0E946704AB
:100C9000C801B4010E94D006082FCB01B4010E9404
:100CA000D006805D0E946704802F805D0E946704EB
:100CB0006DC0C8010A978A35910570F4C801B40166
:100CC0000E94D006082F862F805D0E946704802F27
:100CD000805D0E9467045AC00A30110508F056C0B2
:100CE000802F805D0E94670451C0EEEFFFEFEC0F94
:100CF000FD1FEE0DFF1D808190E0C097FE01EE0DFF
:100D0000FF1D608170E0605370400E94E4068B011B
:100D1000CB018456904033E084389307C8F4CB016C
:100D2000B1010E94D006862F805D0E946704C80131
:100D3000B4010E94D006082FCB01B4010E94D00656
:100D4000805D0E946704802F805D0E9467041EC042
:100D5000CB010A978A35910570F4CB01B4010E944A
:100D6000D006082F862F805D0E946704802F805D4B
:100D70000E9467040BC06A30710540F4862F805DC5
:100D80000E94670403C00E94880408CE8FEF94E39A
:100D9000ACE081509040A040E1F700C0000010CED0
:100DA000AA1BBB1B51E107C0AA1FBB1FA617B70791
:100DB00010F0A61BB70B881F991F5A95A9F78095AD
:100DC0009095BC01CD01089597FB092E07260AD006
:100DD00077FD04D0E5DF06D000201AF47095619508
:100DE0007F4F0895F6F7909581959F4F0895F89459
:020DF000FFCF33
:100DF2003132332F3435362D3738392B2A303D41B5
:060E0200FFFFFFFFFFFFF0
:00000001FF
